{
  "_format": "hh-sol-artifact-1",
  "contractName": "MolokoNFT",
  "sourceName": "contracts/MolokoNFT.sol",
  "abi": [
    {
      "inputs": [],
      "stateMutability": "nonpayable",
      "type": "constructor"
    },
    {
      "anonymous": false,
      "inputs": [
        {
          "indexed": true,
          "internalType": "address",
          "name": "owner",
          "type": "address"
        },
        {
          "indexed": true,
          "internalType": "address",
          "name": "approved",
          "type": "address"
        },
        {
          "indexed": true,
          "internalType": "uint256",
          "name": "tokenId",
          "type": "uint256"
        }
      ],
      "name": "Approval",
      "type": "event"
    },
    {
      "anonymous": false,
      "inputs": [
        {
          "indexed": true,
          "internalType": "address",
          "name": "owner",
          "type": "address"
        },
        {
          "indexed": true,
          "internalType": "address",
          "name": "operator",
          "type": "address"
        },
        {
          "indexed": false,
          "internalType": "bool",
          "name": "approved",
          "type": "bool"
        }
      ],
      "name": "ApprovalForAll",
      "type": "event"
    },
    {
      "anonymous": false,
      "inputs": [
        {
          "indexed": true,
          "internalType": "address",
          "name": "from",
          "type": "address"
        },
        {
          "indexed": true,
          "internalType": "address",
          "name": "to",
          "type": "address"
        },
        {
          "indexed": true,
          "internalType": "uint256",
          "name": "tokenId",
          "type": "uint256"
        }
      ],
      "name": "Transfer",
      "type": "event"
    },
    {
      "inputs": [
        {
          "internalType": "address",
          "name": "to",
          "type": "address"
        },
        {
          "internalType": "uint256",
          "name": "tokenId",
          "type": "uint256"
        }
      ],
      "name": "approve",
      "outputs": [],
      "stateMutability": "nonpayable",
      "type": "function"
    },
    {
      "inputs": [
        {
          "internalType": "address",
          "name": "owner",
          "type": "address"
        }
      ],
      "name": "balanceOf",
      "outputs": [
        {
          "internalType": "uint256",
          "name": "",
          "type": "uint256"
        }
      ],
      "stateMutability": "view",
      "type": "function"
    },
    {
      "inputs": [
        {
          "internalType": "uint256",
          "name": "tokenId",
          "type": "uint256"
        }
      ],
      "name": "buyItem",
      "outputs": [],
      "stateMutability": "payable",
      "type": "function"
    },
    {
      "inputs": [
        {
          "internalType": "uint256",
          "name": "tokenId",
          "type": "uint256"
        },
        {
          "internalType": "uint256",
          "name": "newPrice",
          "type": "uint256"
        }
      ],
      "name": "changeItemPrice",
      "outputs": [],
      "stateMutability": "nonpayable",
      "type": "function"
    },
    {
      "inputs": [],
      "name": "fetchItems",
      "outputs": [
        {
          "components": [
            {
              "internalType": "address payable",
              "name": "owner",
              "type": "address"
            },
            {
              "internalType": "uint256",
              "name": "tokenId",
              "type": "uint256"
            },
            {
              "internalType": "uint256",
              "name": "price",
              "type": "uint256"
            },
            {
              "internalType": "string",
              "name": "tokenURI",
              "type": "string"
            }
          ],
          "internalType": "struct MolokoNFT.Item[]",
          "name": "",
          "type": "tuple[]"
        }
      ],
      "stateMutability": "view",
      "type": "function"
    },
    {
      "inputs": [],
      "name": "founder",
      "outputs": [
        {
          "internalType": "address",
          "name": "",
          "type": "address"
        }
      ],
      "stateMutability": "view",
      "type": "function"
    },
    {
      "inputs": [
        {
          "internalType": "uint256",
          "name": "tokenId",
          "type": "uint256"
        }
      ],
      "name": "getApproved",
      "outputs": [
        {
          "internalType": "address",
          "name": "",
          "type": "address"
        }
      ],
      "stateMutability": "view",
      "type": "function"
    },
    {
      "inputs": [
        {
          "internalType": "uint256",
          "name": "tokenId",
          "type": "uint256"
        }
      ],
      "name": "getItem",
      "outputs": [
        {
          "components": [
            {
              "internalType": "address payable",
              "name": "owner",
              "type": "address"
            },
            {
              "internalType": "uint256",
              "name": "tokenId",
              "type": "uint256"
            },
            {
              "internalType": "uint256",
              "name": "price",
              "type": "uint256"
            },
            {
              "internalType": "string",
              "name": "tokenURI",
              "type": "string"
            }
          ],
          "internalType": "struct MolokoNFT.Item",
          "name": "",
          "type": "tuple"
        }
      ],
      "stateMutability": "view",
      "type": "function"
    },
    {
      "inputs": [
        {
          "internalType": "address",
          "name": "owner",
          "type": "address"
        },
        {
          "internalType": "address",
          "name": "operator",
          "type": "address"
        }
      ],
      "name": "isApprovedForAll",
      "outputs": [
        {
          "internalType": "bool",
          "name": "",
          "type": "bool"
        }
      ],
      "stateMutability": "view",
      "type": "function"
    },
    {
      "inputs": [
        {
          "internalType": "string",
          "name": "tokenURI",
          "type": "string"
        },
        {
          "internalType": "uint256",
          "name": "price",
          "type": "uint256"
        }
      ],
      "name": "mint",
      "outputs": [],
      "stateMutability": "nonpayable",
      "type": "function"
    },
    {
      "inputs": [],
      "name": "name",
      "outputs": [
        {
          "internalType": "string",
          "name": "",
          "type": "string"
        }
      ],
      "stateMutability": "view",
      "type": "function"
    },
    {
      "inputs": [
        {
          "internalType": "uint256",
          "name": "tokenId",
          "type": "uint256"
        }
      ],
      "name": "ownerOf",
      "outputs": [
        {
          "internalType": "address",
          "name": "",
          "type": "address"
        }
      ],
      "stateMutability": "view",
      "type": "function"
    },
    {
      "inputs": [
        {
          "internalType": "address",
          "name": "from",
          "type": "address"
        },
        {
          "internalType": "address",
          "name": "to",
          "type": "address"
        },
        {
          "internalType": "uint256",
          "name": "tokenId",
          "type": "uint256"
        }
      ],
      "name": "safeTransferFrom",
      "outputs": [],
      "stateMutability": "nonpayable",
      "type": "function"
    },
    {
      "inputs": [
        {
          "internalType": "address",
          "name": "from",
          "type": "address"
        },
        {
          "internalType": "address",
          "name": "to",
          "type": "address"
        },
        {
          "internalType": "uint256",
          "name": "tokenId",
          "type": "uint256"
        },
        {
          "internalType": "bytes",
          "name": "_data",
          "type": "bytes"
        }
      ],
      "name": "safeTransferFrom",
      "outputs": [],
      "stateMutability": "nonpayable",
      "type": "function"
    },
    {
      "inputs": [
        {
          "internalType": "address",
          "name": "operator",
          "type": "address"
        },
        {
          "internalType": "bool",
          "name": "approved",
          "type": "bool"
        }
      ],
      "name": "setApprovalForAll",
      "outputs": [],
      "stateMutability": "nonpayable",
      "type": "function"
    },
    {
      "inputs": [
        {
          "internalType": "bytes4",
          "name": "interfaceId",
          "type": "bytes4"
        }
      ],
      "name": "supportsInterface",
      "outputs": [
        {
          "internalType": "bool",
          "name": "",
          "type": "bool"
        }
      ],
      "stateMutability": "view",
      "type": "function"
    },
    {
      "inputs": [],
      "name": "symbol",
      "outputs": [
        {
          "internalType": "string",
          "name": "",
          "type": "string"
        }
      ],
      "stateMutability": "view",
      "type": "function"
    },
    {
      "inputs": [],
      "name": "tokenIds",
      "outputs": [
        {
          "internalType": "uint256",
          "name": "",
          "type": "uint256"
        }
      ],
      "stateMutability": "view",
      "type": "function"
    },
    {
      "inputs": [
        {
          "internalType": "uint256",
          "name": "tokenId",
          "type": "uint256"
        }
      ],
      "name": "tokenURI",
      "outputs": [
        {
          "internalType": "string",
          "name": "",
          "type": "string"
        }
      ],
      "stateMutability": "view",
      "type": "function"
    },
    {
      "inputs": [
        {
          "internalType": "address",
          "name": "from",
          "type": "address"
        },
        {
          "internalType": "address",
          "name": "to",
          "type": "address"
        },
        {
          "internalType": "uint256",
          "name": "tokenId",
          "type": "uint256"
        }
      ],
      "name": "transferFrom",
      "outputs": [],
      "stateMutability": "nonpayable",
      "type": "function"
    },
    {
      "inputs": [
        {
          "internalType": "uint256",
          "name": "tokenId",
          "type": "uint256"
        },
        {
          "internalType": "string",
          "name": "newTokenURI",
          "type": "string"
        }
      ],
      "name": "updateTokenURI",
      "outputs": [],
      "stateMutability": "nonpayable",
      "type": "function"
    }
  ],
  "bytecode": "0x60806040523480156200001157600080fd5b506040518060400160405280600981526020017f4d6f6c6f6b6f4e465400000000000000000000000000000000000000000000008152506040518060400160405280600481526020017f4d4e46540000000000000000000000000000000000000000000000000000000081525081600090805190602001906200009692919062000101565b508060019080519060200190620000af92919062000101565b505050600160078190555033600960006101000a81548173ffffffffffffffffffffffffffffffffffffffff021916908373ffffffffffffffffffffffffffffffffffffffff16021790555062000216565b8280546200010f90620001b1565b90600052602060002090601f0160209004810192826200013357600085556200017f565b82601f106200014e57805160ff19168380011785556200017f565b828001600101855582156200017f579182015b828111156200017e57825182559160200191906001019062000161565b5b5090506200018e919062000192565b5090565b5b80821115620001ad57600081600090555060010162000193565b5090565b60006002820490506001821680620001ca57607f821691505b60208210811415620001e157620001e0620001e7565b5b50919050565b7f4e487b7100000000000000000000000000000000000000000000000000000000600052602260045260246000fd5b613d6f80620002266000396000f3fe60806040526004361061012a5760003560e01c80636352211e116100ab578063a7b194241161006f578063a7b1942414610402578063ad78ba7b1461042b578063b88d4fde14610456578063c87b56dd1461047f578063e7fb74c7146104bc578063e985e9c5146104d85761012a565b80636352211e1461030957806370a0823114610346578063714cff561461038357806395d89b41146103ae578063a22cb465146103d95761012a565b806318e97fd1116100f257806318e97fd11461022657806323b872dd1461024f5780633129e7731461027857806342842e0e146102b55780634d853ee5146102de5761012a565b806301ffc9a71461012f578063056b01ce1461016c57806306fdde0314610195578063081812fc146101c0578063095ea7b3146101fd575b600080fd5b34801561013b57600080fd5b50610156600480360381019061015191906127b8565b610515565b6040516101639190612f97565b60405180910390f35b34801561017857600080fd5b50610193600480360381019061018e919061280a565b6105f7565b005b3480156101a157600080fd5b506101aa6107c7565b6040516101b79190612fb2565b60405180910390f35b3480156101cc57600080fd5b506101e760048036038101906101e2919061285e565b610859565b6040516101f49190612f0e565b60405180910390f35b34801561020957600080fd5b50610224600480360381019061021f919061277c565b6108de565b005b34801561023257600080fd5b5061024d60048036038101906102489190612887565b6109f6565b005b34801561025b57600080fd5b5061027660048036038101906102719190612676565b610a94565b005b34801561028457600080fd5b5061029f600480360381019061029a919061285e565b610af4565b6040516102ac91906132b4565b60405180910390f35b3480156102c157600080fd5b506102dc60048036038101906102d79190612676565b610c65565b005b3480156102ea57600080fd5b506102f3610c85565b6040516103009190612f0e565b60405180910390f35b34801561031557600080fd5b50610330600480360381019061032b919061285e565b610cab565b60405161033d9190612f0e565b60405180910390f35b34801561035257600080fd5b5061036d60048036038101906103689190612611565b610d5d565b60405161037a91906132d6565b60405180910390f35b34801561038f57600080fd5b50610398610e15565b6040516103a591906132d6565b60405180910390f35b3480156103ba57600080fd5b506103c3610e1b565b6040516103d09190612fb2565b60405180910390f35b3480156103e557600080fd5b5061040060048036038101906103fb9190612740565b610ead565b005b34801561040e57600080fd5b50610429600480360381019061042491906128db565b610ec3565b005b34801561043757600080fd5b50610440610fc2565b60405161044d9190612f75565b60405180910390f35b34801561046257600080fd5b5061047d600480360381019061047891906126c5565b6111ce565b005b34801561048b57600080fd5b506104a660048036038101906104a1919061285e565b611230565b6040516104b39190612fb2565b60405180910390f35b6104d660048036038101906104d1919061285e565b611382565b005b3480156104e457600080fd5b506104ff60048036038101906104fa919061263a565b6115c8565b60405161050c9190612f97565b60405180910390f35b60007f80ac58cd000000000000000000000000000000000000000000000000000000007bffffffffffffffffffffffffffffffffffffffffffffffffffffffff1916827bffffffffffffffffffffffffffffffffffffffffffffffffffffffff191614806105e057507f5b5e139f000000000000000000000000000000000000000000000000000000007bffffffffffffffffffffffffffffffffffffffffffffffffffffffff1916827bffffffffffffffffffffffffffffffffffffffffffffffffffffffff1916145b806105f057506105ef8261165c565b5b9050919050565b600960009054906101000a900473ffffffffffffffffffffffffffffffffffffffff1673ffffffffffffffffffffffffffffffffffffffff163373ffffffffffffffffffffffffffffffffffffffff1614610687576040517f08c379a000000000000000000000000000000000000000000000000000000000815260040161067e906131f4565b60405180910390fd5b600081116106ca576040517f08c379a00000000000000000000000000000000000000000000000000000000081526004016106c190613294565b60405180910390fd5b600060085490506106db33826116c6565b6106e581846116e4565b600860008154809291906106f8906135f6565b919050555060405180608001604052803373ffffffffffffffffffffffffffffffffffffffff16815260200182815260200183815260200184815250600a600083815260200190815260200160002060008201518160000160006101000a81548173ffffffffffffffffffffffffffffffffffffffff021916908373ffffffffffffffffffffffffffffffffffffffff160217905550602082015181600101556040820151816002015560608201518160030190805190602001906107be9291906123f7565b50905050505050565b6060600080546107d690613593565b80601f016020809104026020016040519081016040528092919081815260200182805461080290613593565b801561084f5780601f106108245761010080835404028352916020019161084f565b820191906000526020600020905b81548152906001019060200180831161083257829003601f168201915b5050505050905090565b600061086482611758565b6108a3576040517f08c379a000000000000000000000000000000000000000000000000000000000815260040161089a906131b4565b60405180910390fd5b6004600083815260200190815260200160002060009054906101000a900473ffffffffffffffffffffffffffffffffffffffff169050919050565b60006108e982610cab565b90508073ffffffffffffffffffffffffffffffffffffffff168373ffffffffffffffffffffffffffffffffffffffff16141561095a576040517f08c379a000000000000000000000000000000000000000000000000000000000815260040161095190613214565b60405180910390fd5b8073ffffffffffffffffffffffffffffffffffffffff166109796117c4565b73ffffffffffffffffffffffffffffffffffffffff1614806109a857506109a7816109a26117c4565b6115c8565b5b6109e7576040517f08c379a00000000000000000000000000000000000000000000000000000000081526004016109de906130d4565b60405180910390fd5b6109f183836117cc565b505050565b600960009054906101000a900473ffffffffffffffffffffffffffffffffffffffff1673ffffffffffffffffffffffffffffffffffffffff163373ffffffffffffffffffffffffffffffffffffffff1614610a86576040517f08c379a0000000000000000000000000000000000000000000000000000000008152600401610a7d906131f4565b60405180910390fd5b610a9082826116e4565b5050565b610aa5610a9f6117c4565b82611885565b610ae4576040517f08c379a0000000000000000000000000000000000000000000000000000000008152600401610adb90613254565b60405180910390fd5b610aef838383611963565b505050565b610afc61247d565b610b0582611758565b610b44576040517f08c379a0000000000000000000000000000000000000000000000000000000008152600401610b3b906130f4565b60405180910390fd5b600a60008381526020019081526020016000206040518060800160405290816000820160009054906101000a900473ffffffffffffffffffffffffffffffffffffffff1673ffffffffffffffffffffffffffffffffffffffff1673ffffffffffffffffffffffffffffffffffffffff1681526020016001820154815260200160028201548152602001600382018054610bdc90613593565b80601f0160208091040260200160405190810160405280929190818152602001828054610c0890613593565b8015610c555780601f10610c2a57610100808354040283529160200191610c55565b820191906000526020600020905b815481529060010190602001808311610c3857829003601f168201915b5050505050815250509050919050565b610c80838383604051806020016040528060008152506111ce565b505050565b600960009054906101000a900473ffffffffffffffffffffffffffffffffffffffff1681565b6000806002600084815260200190815260200160002060009054906101000a900473ffffffffffffffffffffffffffffffffffffffff169050600073ffffffffffffffffffffffffffffffffffffffff168173ffffffffffffffffffffffffffffffffffffffff161415610d54576040517f08c379a0000000000000000000000000000000000000000000000000000000008152600401610d4b90613134565b60405180910390fd5b80915050919050565b60008073ffffffffffffffffffffffffffffffffffffffff168273ffffffffffffffffffffffffffffffffffffffff161415610dce576040517f08c379a0000000000000000000000000000000000000000000000000000000008152600401610dc590613114565b60405180910390fd5b600360008373ffffffffffffffffffffffffffffffffffffffff1673ffffffffffffffffffffffffffffffffffffffff168152602001908152602001600020549050919050565b60085481565b606060018054610e2a90613593565b80601f0160208091040260200160405190810160405280929190818152602001828054610e5690613593565b8015610ea35780601f10610e7857610100808354040283529160200191610ea3565b820191906000526020600020905b815481529060010190602001808311610e8657829003601f168201915b5050505050905090565b610ebf610eb86117c4565b8383611bca565b5050565b610ecc82611758565b610f0b576040517f08c379a0000000000000000000000000000000000000000000000000000000008152600401610f02906130f4565b60405180910390fd5b6000600a600084815260200190815260200160002090508060000160009054906101000a900473ffffffffffffffffffffffffffffffffffffffff1673ffffffffffffffffffffffffffffffffffffffff163373ffffffffffffffffffffffffffffffffffffffff1614610fb4576040517f08c379a0000000000000000000000000000000000000000000000000000000008152600401610fab90612fd4565b60405180910390fd5b818160020181905550505050565b60606000600854905060008167ffffffffffffffff81111561100d577f4e487b7100000000000000000000000000000000000000000000000000000000600052604160045260246000fd5b60405190808252806020026020018201604052801561104657816020015b61103361247d565b81526020019060019003908161102b5790505b50905060005b828110156111c557600a60008281526020019081526020016000206040518060800160405290816000820160009054906101000a900473ffffffffffffffffffffffffffffffffffffffff1673ffffffffffffffffffffffffffffffffffffffff1673ffffffffffffffffffffffffffffffffffffffff16815260200160018201548152602001600282015481526020016003820180546110ec90613593565b80601f016020809104026020016040519081016040528092919081815260200182805461111890613593565b80156111655780601f1061113a57610100808354040283529160200191611165565b820191906000526020600020905b81548152906001019060200180831161114857829003601f168201915b5050505050815250508282815181106111a7577f4e487b7100000000000000000000000000000000000000000000000000000000600052603260045260246000fd5b602002602001018190525080806111bd906135f6565b91505061104c565b50809250505090565b6111df6111d96117c4565b83611885565b61121e576040517f08c379a000000000000000000000000000000000000000000000000000000000815260040161121590613254565b60405180910390fd5b61122a84848484611d37565b50505050565b606061123b82611758565b61127a576040517f08c379a000000000000000000000000000000000000000000000000000000000815260040161127190613194565b60405180910390fd5b600060066000848152602001908152602001600020805461129a90613593565b80601f01602080910402602001604051908101604052809291908181526020018280546112c690613593565b80156113135780601f106112e857610100808354040283529160200191611313565b820191906000526020600020905b8154815290600101906020018083116112f657829003601f168201915b505050505090506000611324611d93565b905060008151141561133a57819250505061137d565b60008251111561136f578082604051602001611357929190612ed5565b6040516020818303038152906040529250505061137d565b61137884611daa565b925050505b919050565b600260075414156113c8576040517f08c379a00000000000000000000000000000000000000000000000000000000081526004016113bf90613274565b60405180910390fd5b60026007819055506113d981611758565b611418576040517f08c379a000000000000000000000000000000000000000000000000000000000815260040161140f906130f4565b60405180910390fd5b6000600a6000838152602001908152602001600020905080600201543414611475576040517f08c379a000000000000000000000000000000000000000000000000000000000815260040161146c90613054565b60405180910390fd5b60008160000160009054906101000a900473ffffffffffffffffffffffffffffffffffffffff1673ffffffffffffffffffffffffffffffffffffffff1682600201546040516114c390612ef9565b60006040518083038185875af1925050503d8060008114611500576040519150601f19603f3d011682016040523d82523d6000602084013e611505565b606091505b5050905080611549576040517f08c379a000000000000000000000000000000000000000000000000000000000815260040161154090613234565b60405180910390fd5b6115788260000160009054906101000a900473ffffffffffffffffffffffffffffffffffffffff163385611963565b338260000160006101000a81548173ffffffffffffffffffffffffffffffffffffffff021916908373ffffffffffffffffffffffffffffffffffffffff1602179055505050600160078190555050565b6000600560008473ffffffffffffffffffffffffffffffffffffffff1673ffffffffffffffffffffffffffffffffffffffff16815260200190815260200160002060008373ffffffffffffffffffffffffffffffffffffffff1673ffffffffffffffffffffffffffffffffffffffff16815260200190815260200160002060009054906101000a900460ff16905092915050565b60007f01ffc9a7000000000000000000000000000000000000000000000000000000007bffffffffffffffffffffffffffffffffffffffffffffffffffffffff1916827bffffffffffffffffffffffffffffffffffffffffffffffffffffffff1916149050919050565b6116e0828260405180602001604052806000815250611e51565b5050565b6116ed82611758565b61172c576040517f08c379a000000000000000000000000000000000000000000000000000000000815260040161172390613154565b60405180910390fd5b806006600084815260200190815260200160002090805190602001906117539291906123f7565b505050565b60008073ffffffffffffffffffffffffffffffffffffffff166002600084815260200190815260200160002060009054906101000a900473ffffffffffffffffffffffffffffffffffffffff1673ffffffffffffffffffffffffffffffffffffffff1614159050919050565b600033905090565b816004600083815260200190815260200160002060006101000a81548173ffffffffffffffffffffffffffffffffffffffff021916908373ffffffffffffffffffffffffffffffffffffffff160217905550808273ffffffffffffffffffffffffffffffffffffffff1661183f83610cab565b73ffffffffffffffffffffffffffffffffffffffff167f8c5be1e5ebec7d5bd14f71427d1e84f3dd0314c0f7b2291e5b200ac8c7c3b92560405160405180910390a45050565b600061189082611758565b6118cf576040517f08c379a00000000000000000000000000000000000000000000000000000000081526004016118c6906130b4565b60405180910390fd5b60006118da83610cab565b90508073ffffffffffffffffffffffffffffffffffffffff168473ffffffffffffffffffffffffffffffffffffffff16148061194957508373ffffffffffffffffffffffffffffffffffffffff1661193184610859565b73ffffffffffffffffffffffffffffffffffffffff16145b8061195a575061195981856115c8565b5b91505092915050565b8273ffffffffffffffffffffffffffffffffffffffff1661198382610cab565b73ffffffffffffffffffffffffffffffffffffffff16146119d9576040517f08c379a00000000000000000000000000000000000000000000000000000000081526004016119d090613014565b60405180910390fd5b600073ffffffffffffffffffffffffffffffffffffffff168273ffffffffffffffffffffffffffffffffffffffff161415611a49576040517f08c379a0000000000000000000000000000000000000000000000000000000008152600401611a4090613074565b60405180910390fd5b611a54838383611eac565b611a5f6000826117cc565b6001600360008573ffffffffffffffffffffffffffffffffffffffff1673ffffffffffffffffffffffffffffffffffffffff1681526020019081526020016000206000828254611aaf9190613497565b925050819055506001600360008473ffffffffffffffffffffffffffffffffffffffff1673ffffffffffffffffffffffffffffffffffffffff1681526020019081526020016000206000828254611b069190613410565b92505081905550816002600083815260200190815260200160002060006101000a81548173ffffffffffffffffffffffffffffffffffffffff021916908373ffffffffffffffffffffffffffffffffffffffff160217905550808273ffffffffffffffffffffffffffffffffffffffff168473ffffffffffffffffffffffffffffffffffffffff167fddf252ad1be2c89b69c2b068fc378daa952ba7f163c4a11628f55a4df523b3ef60405160405180910390a4611bc5838383611eb1565b505050565b8173ffffffffffffffffffffffffffffffffffffffff168373ffffffffffffffffffffffffffffffffffffffff161415611c39576040517f08c379a0000000000000000000000000000000000000000000000000000000008152600401611c3090613094565b60405180910390fd5b80600560008573ffffffffffffffffffffffffffffffffffffffff1673ffffffffffffffffffffffffffffffffffffffff16815260200190815260200160002060008473ffffffffffffffffffffffffffffffffffffffff1673ffffffffffffffffffffffffffffffffffffffff16815260200190815260200160002060006101000a81548160ff0219169083151502179055508173ffffffffffffffffffffffffffffffffffffffff168373ffffffffffffffffffffffffffffffffffffffff167f17307eab39ab6107e8899845ad3d59bd9653f200f220920489ca2b5937696c3183604051611d2a9190612f97565b60405180910390a3505050565b611d42848484611963565b611d4e84848484611eb6565b611d8d576040517f08c379a0000000000000000000000000000000000000000000000000000000008152600401611d8490612ff4565b60405180910390fd5b50505050565b606060405180602001604052806000815250905090565b6060611db582611758565b611df4576040517f08c379a0000000000000000000000000000000000000000000000000000000008152600401611deb906131d4565b60405180910390fd5b6000611dfe611d93565b90506000815111611e1e5760405180602001604052806000815250611e49565b80611e288461204d565b604051602001611e39929190612ed5565b6040516020818303038152906040525b915050919050565b611e5b83836121fa565b611e686000848484611eb6565b611ea7576040517f08c379a0000000000000000000000000000000000000000000000000000000008152600401611e9e90612ff4565b60405180910390fd5b505050565b505050565b505050565b6000611ed78473ffffffffffffffffffffffffffffffffffffffff166123d4565b15612040578373ffffffffffffffffffffffffffffffffffffffff1663150b7a02611f006117c4565b8786866040518563ffffffff1660e01b8152600401611f229493929190612f29565b602060405180830381600087803b158015611f3c57600080fd5b505af1925050508015611f6d57506040513d601f19601f82011682018060405250810190611f6a91906127e1565b60015b611ff0573d8060008114611f9d576040519150601f19603f3d011682016040523d82523d6000602084013e611fa2565b606091505b50600081511415611fe8576040517f08c379a0000000000000000000000000000000000000000000000000000000008152600401611fdf90612ff4565b60405180910390fd5b805181602001fd5b63150b7a0260e01b7bffffffffffffffffffffffffffffffffffffffffffffffffffffffff1916817bffffffffffffffffffffffffffffffffffffffffffffffffffffffff191614915050612045565b600190505b949350505050565b60606000821415612095576040518060400160405280600181526020017f300000000000000000000000000000000000000000000000000000000000000081525090506121f5565b600082905060005b600082146120c75780806120b0906135f6565b915050600a826120c09190613466565b915061209d565b60008167ffffffffffffffff811115612109577f4e487b7100000000000000000000000000000000000000000000000000000000600052604160045260246000fd5b6040519080825280601f01601f19166020018201604052801561213b5781602001600182028036833780820191505090505b5090505b600085146121ee576001826121549190613497565b9150600a85612163919061363f565b603061216f9190613410565b60f81b8183815181106121ab577f4e487b7100000000000000000000000000000000000000000000000000000000600052603260045260246000fd5b60200101907effffffffffffffffffffffffffffffffffffffffffffffffffffffffffffff1916908160001a905350600a856121e79190613466565b945061213f565b8093505050505b919050565b600073ffffffffffffffffffffffffffffffffffffffff168273ffffffffffffffffffffffffffffffffffffffff16141561226a576040517f08c379a000000000000000000000000000000000000000000000000000000000815260040161226190613174565b60405180910390fd5b61227381611758565b156122b3576040517f08c379a00000000000000000000000000000000000000000000000000000000081526004016122aa90613034565b60405180910390fd5b6122bf60008383611eac565b6001600360008473ffffffffffffffffffffffffffffffffffffffff1673ffffffffffffffffffffffffffffffffffffffff168152602001908152602001600020600082825461230f9190613410565b92505081905550816002600083815260200190815260200160002060006101000a81548173ffffffffffffffffffffffffffffffffffffffff021916908373ffffffffffffffffffffffffffffffffffffffff160217905550808273ffffffffffffffffffffffffffffffffffffffff16600073ffffffffffffffffffffffffffffffffffffffff167fddf252ad1be2c89b69c2b068fc378daa952ba7f163c4a11628f55a4df523b3ef60405160405180910390a46123d060008383611eb1565b5050565b6000808273ffffffffffffffffffffffffffffffffffffffff163b119050919050565b82805461240390613593565b90600052602060002090601f016020900481019282612425576000855561246c565b82601f1061243e57805160ff191683800117855561246c565b8280016001018555821561246c579182015b8281111561246b578251825591602001919060010190612450565b5b50905061247991906124bb565b5090565b6040518060800160405280600073ffffffffffffffffffffffffffffffffffffffff1681526020016000815260200160008152602001606081525090565b5b808211156124d45760008160009055506001016124bc565b5090565b60006124eb6124e684613316565b6132f1565b90508281526020810184848401111561250357600080fd5b61250e848285613551565b509392505050565b600061252961252484613347565b6132f1565b90508281526020810184848401111561254157600080fd5b61254c848285613551565b509392505050565b60008135905061256381613cdd565b92915050565b60008135905061257881613cf4565b92915050565b60008135905061258d81613d0b565b92915050565b6000815190506125a281613d0b565b92915050565b600082601f8301126125b957600080fd5b81356125c98482602086016124d8565b91505092915050565b600082601f8301126125e357600080fd5b81356125f3848260208601612516565b91505092915050565b60008135905061260b81613d22565b92915050565b60006020828403121561262357600080fd5b600061263184828501612554565b91505092915050565b6000806040838503121561264d57600080fd5b600061265b85828601612554565b925050602061266c85828601612554565b9150509250929050565b60008060006060848603121561268b57600080fd5b600061269986828701612554565b93505060206126aa86828701612554565b92505060406126bb868287016125fc565b9150509250925092565b600080600080608085870312156126db57600080fd5b60006126e987828801612554565b94505060206126fa87828801612554565b935050604061270b878288016125fc565b925050606085013567ffffffffffffffff81111561272857600080fd5b612734878288016125a8565b91505092959194509250565b6000806040838503121561275357600080fd5b600061276185828601612554565b925050602061277285828601612569565b9150509250929050565b6000806040838503121561278f57600080fd5b600061279d85828601612554565b92505060206127ae858286016125fc565b9150509250929050565b6000602082840312156127ca57600080fd5b60006127d88482850161257e565b91505092915050565b6000602082840312156127f357600080fd5b600061280184828501612593565b91505092915050565b6000806040838503121561281d57600080fd5b600083013567ffffffffffffffff81111561283757600080fd5b612843858286016125d2565b9250506020612854858286016125fc565b9150509250929050565b60006020828403121561287057600080fd5b600061287e848285016125fc565b91505092915050565b6000806040838503121561289a57600080fd5b60006128a8858286016125fc565b925050602083013567ffffffffffffffff8111156128c557600080fd5b6128d1858286016125d2565b9150509250929050565b600080604083850312156128ee57600080fd5b60006128fc858286016125fc565b925050602061290d858286016125fc565b9150509250929050565b60006129238383612df1565b905092915050565b612934816134dd565b82525050565b612943816134cb565b82525050565b600061295482613388565b61295e81856133b6565b93508360208202850161297085613378565b8060005b858110156129ac578484038952815161298d8582612917565b9450612998836133a9565b925060208a01995050600181019050612974565b50829750879550505050505092915050565b6129c7816134ef565b82525050565b60006129d882613393565b6129e281856133c7565b93506129f2818560208601613560565b6129fb8161372c565b840191505092915050565b6000612a118261339e565b612a1b81856133e3565b9350612a2b818560208601613560565b612a348161372c565b840191505092915050565b6000612a4a8261339e565b612a5481856133f4565b9350612a64818560208601613560565b612a6d8161372c565b840191505092915050565b6000612a838261339e565b612a8d8185613405565b9350612a9d818560208601613560565b80840191505092915050565b6000612ab6600a836133f4565b9150612ac18261373d565b602082019050919050565b6000612ad96032836133f4565b9150612ae482613766565b604082019050919050565b6000612afc6025836133f4565b9150612b07826137b5565b604082019050919050565b6000612b1f601c836133f4565b9150612b2a82613804565b602082019050919050565b6000612b426016836133f4565b9150612b4d8261382d565b602082019050919050565b6000612b656024836133f4565b9150612b7082613856565b604082019050919050565b6000612b886019836133f4565b9150612b93826138a5565b602082019050919050565b6000612bab602c836133f4565b9150612bb6826138ce565b604082019050919050565b6000612bce6038836133f4565b9150612bd98261391d565b604082019050919050565b6000612bf16011836133f4565b9150612bfc8261396c565b602082019050919050565b6000612c14602a836133f4565b9150612c1f82613995565b604082019050919050565b6000612c376029836133f4565b9150612c42826139e4565b604082019050919050565b6000612c5a602e836133f4565b9150612c6582613a33565b604082019050919050565b6000612c7d6020836133f4565b9150612c8882613a82565b602082019050919050565b6000612ca06031836133f4565b9150612cab82613aab565b604082019050919050565b6000612cc3602c836133f4565b9150612cce82613afa565b604082019050919050565b6000612ce6602f836133f4565b9150612cf182613b49565b604082019050919050565b6000612d09600c836133f4565b9150612d1482613b98565b602082019050919050565b6000612d2c6021836133f4565b9150612d3782613bc1565b604082019050919050565b6000612d4f6000836133d8565b9150612d5a82613c10565b600082019050919050565b6000612d726010836133f4565b9150612d7d82613c13565b602082019050919050565b6000612d956031836133f4565b9150612da082613c3c565b604082019050919050565b6000612db8601f836133f4565b9150612dc382613c8b565b602082019050919050565b6000612ddb601c836133f4565b9150612de682613cb4565b602082019050919050565b6000608083016000830151612e09600086018261292b565b506020830151612e1c6020860182612eb7565b506040830151612e2f6040860182612eb7565b5060608301518482036060860152612e478282612a06565b9150508091505092915050565b6000608083016000830151612e6c600086018261292b565b506020830151612e7f6020860182612eb7565b506040830151612e926040860182612eb7565b5060608301518482036060860152612eaa8282612a06565b9150508091505092915050565b612ec081613547565b82525050565b612ecf81613547565b82525050565b6000612ee18285612a78565b9150612eed8284612a78565b91508190509392505050565b6000612f0482612d42565b9150819050919050565b6000602082019050612f23600083018461293a565b92915050565b6000608082019050612f3e600083018761293a565b612f4b602083018661293a565b612f586040830185612ec6565b8181036060830152612f6a81846129cd565b905095945050505050565b60006020820190508181036000830152612f8f8184612949565b905092915050565b6000602082019050612fac60008301846129be565b92915050565b60006020820190508181036000830152612fcc8184612a3f565b905092915050565b60006020820190508181036000830152612fed81612aa9565b9050919050565b6000602082019050818103600083015261300d81612acc565b9050919050565b6000602082019050818103600083015261302d81612aef565b9050919050565b6000602082019050818103600083015261304d81612b12565b9050919050565b6000602082019050818103600083015261306d81612b35565b9050919050565b6000602082019050818103600083015261308d81612b58565b9050919050565b600060208201905081810360008301526130ad81612b7b565b9050919050565b600060208201905081810360008301526130cd81612b9e565b9050919050565b600060208201905081810360008301526130ed81612bc1565b9050919050565b6000602082019050818103600083015261310d81612be4565b9050919050565b6000602082019050818103600083015261312d81612c07565b9050919050565b6000602082019050818103600083015261314d81612c2a565b9050919050565b6000602082019050818103600083015261316d81612c4d565b9050919050565b6000602082019050818103600083015261318d81612c70565b9050919050565b600060208201905081810360008301526131ad81612c93565b9050919050565b600060208201905081810360008301526131cd81612cb6565b9050919050565b600060208201905081810360008301526131ed81612cd9565b9050919050565b6000602082019050818103600083015261320d81612cfc565b9050919050565b6000602082019050818103600083015261322d81612d1f565b9050919050565b6000602082019050818103600083015261324d81612d65565b9050919050565b6000602082019050818103600083015261326d81612d88565b9050919050565b6000602082019050818103600083015261328d81612dab565b9050919050565b600060208201905081810360008301526132ad81612dce565b9050919050565b600060208201905081810360008301526132ce8184612e54565b905092915050565b60006020820190506132eb6000830184612ec6565b92915050565b60006132fb61330c565b905061330782826135c5565b919050565b6000604051905090565b600067ffffffffffffffff821115613331576133306136fd565b5b61333a8261372c565b9050602081019050919050565b600067ffffffffffffffff821115613362576133616136fd565b5b61336b8261372c565b9050602081019050919050565b6000819050602082019050919050565b600081519050919050565b600081519050919050565b600081519050919050565b6000602082019050919050565b600082825260208201905092915050565b600082825260208201905092915050565b600081905092915050565b600082825260208201905092915050565b600082825260208201905092915050565b600081905092915050565b600061341b82613547565b915061342683613547565b9250827fffffffffffffffffffffffffffffffffffffffffffffffffffffffffffffffff0382111561345b5761345a613670565b5b828201905092915050565b600061347182613547565b915061347c83613547565b92508261348c5761348b61369f565b5b828204905092915050565b60006134a282613547565b91506134ad83613547565b9250828210156134c0576134bf613670565b5b828203905092915050565b60006134d682613527565b9050919050565b60006134e882613527565b9050919050565b60008115159050919050565b60007fffffffff0000000000000000000000000000000000000000000000000000000082169050919050565b600073ffffffffffffffffffffffffffffffffffffffff82169050919050565b6000819050919050565b82818337600083830152505050565b60005b8381101561357e578082015181840152602081019050613563565b8381111561358d576000848401525b50505050565b600060028204905060018216806135ab57607f821691505b602082108114156135bf576135be6136ce565b5b50919050565b6135ce8261372c565b810181811067ffffffffffffffff821117156135ed576135ec6136fd565b5b80604052505050565b600061360182613547565b91507fffffffffffffffffffffffffffffffffffffffffffffffffffffffffffffffff82141561363457613633613670565b5b600182019050919050565b600061364a82613547565b915061365583613547565b9250826136655761366461369f565b5b828206905092915050565b7f4e487b7100000000000000000000000000000000000000000000000000000000600052601160045260246000fd5b7f4e487b7100000000000000000000000000000000000000000000000000000000600052601260045260246000fd5b7f4e487b7100000000000000000000000000000000000000000000000000000000600052602260045260246000fd5b7f4e487b7100000000000000000000000000000000000000000000000000000000600052604160045260246000fd5b6000601f19601f8301169050919050565b7f4f6e6c79206f776e657200000000000000000000000000000000000000000000600082015250565b7f4552433732313a207472616e7366657220746f206e6f6e20455243373231526560008201527f63656976657220696d706c656d656e7465720000000000000000000000000000602082015250565b7f4552433732313a207472616e736665722066726f6d20696e636f72726563742060008201527f6f776e6572000000000000000000000000000000000000000000000000000000602082015250565b7f4552433732313a20746f6b656e20616c7265616479206d696e74656400000000600082015250565b7f496e636f7272656374207061796d656e742073756d6d00000000000000000000600082015250565b7f4552433732313a207472616e7366657220746f20746865207a65726f2061646460008201527f7265737300000000000000000000000000000000000000000000000000000000602082015250565b7f4552433732313a20617070726f766520746f2063616c6c657200000000000000600082015250565b7f4552433732313a206f70657261746f7220717565727920666f72206e6f6e657860008201527f697374656e7420746f6b656e0000000000000000000000000000000000000000602082015250565b7f4552433732313a20617070726f76652063616c6c6572206973206e6f74206f7760008201527f6e6572206e6f7220617070726f76656420666f7220616c6c0000000000000000602082015250565b7f4e6f6e6578697374656e7420746f6b656e000000000000000000000000000000600082015250565b7f4552433732313a2062616c616e636520717565727920666f7220746865207a6560008201527f726f206164647265737300000000000000000000000000000000000000000000602082015250565b7f4552433732313a206f776e657220717565727920666f72206e6f6e657869737460008201527f656e7420746f6b656e0000000000000000000000000000000000000000000000602082015250565b7f45524337323155524953746f726167653a2055524920736574206f66206e6f6e60008201527f6578697374656e7420746f6b656e000000000000000000000000000000000000602082015250565b7f4552433732313a206d696e7420746f20746865207a65726f2061646472657373600082015250565b7f45524337323155524953746f726167653a2055524920717565727920666f722060008201527f6e6f6e6578697374656e7420746f6b656e000000000000000000000000000000602082015250565b7f4552433732313a20617070726f76656420717565727920666f72206e6f6e657860008201527f697374656e7420746f6b656e0000000000000000000000000000000000000000602082015250565b7f4552433732314d657461646174613a2055524920717565727920666f72206e6f60008201527f6e6578697374656e7420746f6b656e0000000000000000000000000000000000602082015250565b7f4f6e6c7920666f756e6465720000000000000000000000000000000000000000600082015250565b7f4552433732313a20617070726f76616c20746f2063757272656e74206f776e6560008201527f7200000000000000000000000000000000000000000000000000000000000000602082015250565b50565b7f5472616e73666572206661696c65642e00000000000000000000000000000000600082015250565b7f4552433732313a207472616e736665722063616c6c6572206973206e6f74206f60008201527f776e6572206e6f7220617070726f766564000000000000000000000000000000602082015250565b7f5265656e7472616e637947756172643a207265656e7472616e742063616c6c00600082015250565b7f5072696365206d757374206265206174206c6561737420312077656900000000600082015250565b613ce6816134cb565b8114613cf157600080fd5b50565b613cfd816134ef565b8114613d0857600080fd5b50565b613d14816134fb565b8114613d1f57600080fd5b50565b613d2b81613547565b8114613d3657600080fd5b5056fea2646970667358221220d48eaef09ee960e172ec02061d7867293b56ff0f1e92a4d53b04ac5dd19c1fef64736f6c63430008040033",
  "linkReferences": {},
  "deployedLinkReferences": {}
}